:020000040800F2
:10000000B0200020410200087B26000833260008AB
:100010007926000841150008B528000800000000F6
:10002000000000000000000000000000A90100081E
:100030007515000800000000ED010008B127000858
:100040005B0200085B0200085B0200085B0200081C
:100050005B0200085B0200085B0200085B0200080C
:100060005B0200085B0200085B0200085B020008FC
:100070005B0200085B0200085B0200085B020008EC
:100080005B0200085B0200085B0200085B020008DC
:100090005B0200085B0200085B0200085B020008CC
:1000A0005B0200085B0200085B0200085B020008BC
:1000B0005B0200085B0200083D2800085B020008A4
:1000C0005B0200085B0200085B0200085B0200089C
:1000D0005B0200085B0200085B0200085B0200088C
:1000E0005B0200085B0200085B02000800F002F8F7
:1000F00000F04AF80AA090E8000C82448344AAF178
:100100000107DA4501D100F03FF8AFF2090EBAE875
:100110000F0013F0010F18BFFB1A43F0010318473B
:10012000BC550000DC550000103A24BF78C878C1E7
:10013000FAD8520724BF30C830C144BF04680C60ED
:10014000704700000023002400250026103A28BF35
:1001500078C1FBD8520728BF30C148BF0B60704739
:10016000662905F0F081642900F0D28000207047F4
:100170001FB500F065FC04000020002104F00CFA1B
:10018000E0601FBD10B510BD00F05EFD1146FFF729
:10019000EFFF02F043FC00F07CFD03B4FFF7F2FF39
:1001A00003BC00F0BFFD0000224B19680868B0E8EE
:1001B000F00F80F30988BFF36F8F4FF0000080F3DA
:1001C00011884EF00D0E70470000000006480068D0
:1001D000006880F3088862B661B6BFF34F8FBFF343
:1001E0006F8F00DF00BF00BF08ED00E0EFF3098074
:1001F000BFF36F8F0F4B1A6820E9F00F106008B53E
:100200004FF0500080F31188BFF34F8FBFF36F8F13
:1002100003F0D2FC4FF0000080F31188BDE80840E5
:1002200019680868B0E8F00F80F30988BFF36F8F92
:10023000704700BF54000020EFF3058070470000B6
:100240000948804709480047FEE7FEE7FEE7FEE76A
:10025000FEE7FEE7FEE7FEE7FEE7FEE704480549A6
:10026000054A064B704700003B280008ED000008D7
:10027000B01A0020B0200020B01C0020B01C0020CC
:100280000FB41CB5074B06AA7B446946009005983D
:1002900000F069FB0020694600F078FB1CBC5DF8AB
:1002A00014FB0000010700002DE9F0410E46044652
:1002B000002020622046E168884730B3252805D019
:1002C000D4E901219047206A401CF2E7E16820460A
:1002D00000278847050018D0A5F14100192802D849
:1002E00020354FF400673246294620462760FFF745
:1002F00037FF40B1012804D0F61D26F00706083666
:10030000D8E7361DD6E72846DAE7206ABDE8F0814F
:100310002DE9F0410646002410687529314616A5DE
:1003200010D0AFF30080002802DA404213A507E0A6
:1003300031688A0701D512A502E0490704D511A545
:10034000012401E0AFF3008000210A2206F1240716
:1003500009E0B0FBF2FCB0FBF2F302FB1C00303012
:1003600078541846491C0028F3D123462A463046C3
:10037000BDE8F04100F08AB8000000002D00000048
:100380002B00000020000000032A40F2308010F013
:10039000030C00F0158011F8013BBCF1020F624420
:1003A00098BF11F801CB00F8013B38BF11F8013BB1
:1003B000A2F1040298BF00F801CB38BF00F8013B5E
:1003C00011F0030300F0E782083AC0F0088051F80A
:1003D000043B083A51F804CBA0E80810F5E7121DD9
:1003E0005CBF51F8043B40F8043BAFF30080D207F8
:1003F00024BF11F8013B11F801CB48BF11F8012BC4
:1004000024BF00F8013B00F801CB48BF00F8012BE6
:10041000704702F0FF0343EA032242EA024200F07F
:10042000EEBA4FF0000200B51346944696462039C6
:1004300022BFA0E80C50A0E80C50B1F12001BFF49D
:10044000F7AF090728BFA0E80C5048BF0CC05DF803
:1004500004EB890028BF40F8042B08BF704748BF51
:1004600020F8022B11F0804F18BF00F8012B7047C5
:1004700070477047704710B500F0E6FA006810BD8D
:1004800010B5044600F0E0FA046010BD2DE9F04715
:100490000D4699469246044600F1240801688806F4
:1004A00004D5E06921F01001216000E00120A8429C
:1004B00001DD471B00E00027A1697A1902EB090062
:1004C000081AA0612078C00602D42046AFF300804D
:1004D000002608E0D4E901211AF806009047206AB6
:1004E000401C761C20624E45F4DB2078C0060AD5FD
:1004F0002046AFF3008006E0D4E901213020904788
:10050000206A401C2062381EA7F10107F4DC07E0D6
:10051000D4E9012118F805009047206A401C2062A8
:10052000281EA5F10105F3DC2046AFF300802078FA
:10053000000602D50220BDE8F0870120FBE77047E6
:100540002DE9FF4F0C461E464FF0FF378BB0D2E926
:100550000001DDF860800A908A46C1F30A5505B9AA
:100560003D46002108464FF00000BAF1000F00F4AC
:10057000400005DA00EB80004FF4400101EA500032
:100580004FEA9059B9F1010F00DDB9460A9850EAD7
:100590004A000ED044F61050A5F2FF3545432F1403
:1005A000B8F1000F1ED07542291E1EDDC9F10002F0
:1005B0001CE0B8F1010F4FF0000001D0302103E042
:1005C000F24305E02154401CB042FBDB30460022E0
:1005D000002121540B99C1F80880C1E900200FB017
:1005E000BDE8F08FBD1B6D1CDEE74A4600DA6942AC
:1005F00006A800F0B3FA06AB93E8070003AB83E864
:10060000070050460A9900F094FB8DE80700A0F51A
:1006100000501F3800900398002D0ADD42F21F01A0
:100620004A460844002303A90390684600F0FDFDF4
:1006300009E0A0F500504A461F38002303A90390A3
:10064000684600F007FE8DE807000004000C03D0A8
:100650004FF0FF30410800E01046B8F1000F03D022
:100660000022009215461EE0751E05D400F0F0F938
:10067000303262556D1EF9D5B3460122084302D0CF
:1006800000227F1C04E02078302801D100227F1E48
:10069000002A099784D01DE0112D07DA00F0D8F95F
:1006A000303262556D1C50EA0102F5D1084302D088
:1006B0000098C8B10EE00021681E05E0235C625C72
:1006C00063542254401E491C8142F7DBAB46A81BF1
:1006D000401E0990002004F80B000B98099AC0F8FE
:1006E0000880C0E9002B7AE711264FF0000857E791
:1006F0002DE9F04F88460446D21D22F0070191B043
:10070000D1E90001CDE90A0102F0D5F802460B98C3
:10071000C00F01D02D2007E02068810701D52B20D4
:1007200002E0202101EAC000032A099001D0072A33
:1007300005DB03464146204600F0D0F90BE1207866
:10074000800601D5E06900E00620B8F1650F81461A
:1007500006D0B8F1660F18D0B8F1670F70D131E04C
:100760000020B9F1110F009001DB112301E009F124
:1007700001030AAA01A90CA8FFF7E2FEDDE90C704B
:10078000002609F10105834647E001204B46009011
:100790004FF000470AAA01A90CA8FFF7D1FEDDE936
:1007A0000DB00C995D46002610B909F101000D1835
:1007B000B9EB050003D4C0F1FF3609F10105A5EB43
:1007C00009002BE0B9F1010F01DA4FF00109002017
:1007D000B9F1110F0090484601DD112300E00346F6
:1007E0000AAA01A90CA8FFF7ABFEDDE90C704D4683
:1007F00000268346207800070AD4AB4500DA5D4620
:1008000001A8012D04DD411911F8011C302907D080
:100810004F4502DA17F1040F04DA012082460FE097
:100820006D1EEEE7002F02DCED1B3E4403E0781C5A
:10083000A84200DD7D1CB81B00F1010A4FF0004703
:100840002078000703D4AA4501DB4FF0FF3A0021CE
:10085000B7F1004F0DF143088DF8431024D002206A
:100860002B23002F01DA7F422D230A21021EA0F143
:10087000010000DC5FB197FBF1FC97FBF1F201FB9B
:100880001C7C17460CF1300C08F801CDEEE7A8F1FE
:10089000010003702188090501D5452100E065218B
:1008A000A0F1010800F8011C09980FA9A1EB0807A5
:1008B000FF1D00B10120411901EBEA70A169384424
:1008C000081A401EA0612078C00602D42046AFF36B
:1008D0000080099828B1D4E901219047206A401C82
:1008E00020622078C00622D52046AFF300801EE0AB
:1008F000002E04DBB34502DD01A8805D00E030205E
:10090000D4E901219047206A401C2062761CAAF19C
:1009100001005FEA000A0AD100F092F8C06801689D
:10092000405CD4E901219047206A401C2062281EC7
:10093000A5F10105DCDC07E0D4E9012118F8010B81
:100940009047206A401C2062381EA7F10107F3DCA3
:100950002046AFF30080032011B041E601694A1C34
:1009600002610878704700B58FB0CDE901310021F0
:10097000059105497944CDE9031011466846FFF712
:1009800093FC0FB000BD0000E5FFFFFF0A6802F80E
:10099000010B0A60704710B5203AC0F00B80B1E837
:1009A0001850203AA0E81850B1E81850A0E81850A4
:1009B000BFF4F5AF5FEA027C24BFB1E81850A0E8AD
:1009C000185044BF18C918C0BDE810405FEA827CC7
:1009D00024BF51F8043B40F8043B08BF7047D207DE
:1009E00028BF31F8023B48BF11F8012B28BF20F87F
:1009F000023B48BF00F8012B70474FF0000204296A
:100A0000C0F0128010F0030C3FF40DADCCF1040CDB
:100A1000BCF1020F18BF00F8012BA8BF20F8022B71
:100A2000A1EB0C01FFF7FFBC5FEAC17C24BF00F81B
:100A3000012B00F8012B48BF00F8012B7047000084
:100A4000004870476C1A0020004870474C1A00207C
:100A500030B5B0F10A024FEA900E71F100034EEA90
:100A6000817EB0EB0E0061EB91014FEA101E4EEA61
:100A7000017E10EB0E0041EB11114FEA102E4EEAF1
:100A8000016E10EB0E0041EB11214FEA104E4EEAC1
:100A9000014E10EB0E0041EB1141401841F10001F5
:100AA0004FEAD00040EA41704FEAD10110EB8005D7
:100AB0004FEA810444EA907444EB01046D1944EB5D
:100AC0000404521BA3414FF0000348BF0A3200D573
:100AD00030BD401C41F1000130BD00002DE9F04166
:100AE0001F46044603260168072A01F4006004DB60
:100AF00008B116A505E016A503E008B115A500E0AC
:100B000015A521F010002060A069C01EA0610FB1E2
:100B1000401EA0612046AFF300804FB1D4E901210F
:100B200038469047206A401C2062C01C206206E0C4
:100B3000206AFAE7D4E9012115F8010B9047761EE7
:100B4000F8D22046AFF30080BDE8F0814E414E0060
:100B50006E616E00494E4600696E66002DE9F047F1
:100B6000814616468AB0354878440DC88DE80D0098
:100B700032487844801C03AC0DC884E80D0041F66F
:100B80009B300844372190FBF1F290FBF1F5A5F181
:100B9000800501FB12041B3C02D56442012000E0E9
:100BA0000020DFF898A080460027FA44AAF1BE0A88
:100BB0000EE0E0070AD03246684607EB4701012302
:100BC0000AEB810100F046FB8DE8070064107F1CF2
:100BD000002CEED1194F7F44AE3F19E0E80715D045
:100BE00007EB04100DF1180A90E80E008AE80E00D9
:100BF000C068F04201D1981908903246012306A935
:100C000003A800F027FB03AB83E807006D10641C0A
:100C1000002DE3D14FF0010332466946B8F1000FD1
:100C200003A802D000F001FB01E000F013FBC9E9CA
:100C30000001C9F808200AB0BDE8F087D04A0000DA
:100C4000004870474C1A00207546FFF7F9FFAE4682
:100C500005006946534620F00700854618B020B5C8
:100C6000FFF7FCFABDE820404FF000064FF0000708
:100C70004FF000084FF0000B21F00701AC46ACE844
:100C8000C009ACE8C009ACE8C009ACE8C0098D46B1
:100C9000704710B50446AFF300802046BDE8104011
:100CA000FFF77BBA4FF0013C50F8042B51F8043B9E
:100CB0009A4221D1A2EB0C03934313EACC1317D130
:100CC00050F8042B51F8043B9A4215D1A2EB0C03C7
:100CD000934313EACC130BD150F8042B51F8043B87
:100CE0009A4209D1A2EB0C03934313EACC13DBD055
:100CF0004FF00000704700BFD01A01BAB1FA81F17D
:100D000001F0180122FA01F0CB40C1F12001DBB261
:100D1000C0B2C01A2CFA01F3D11A914311EAC311DF
:100D2000E6D1704701491820ABBEFEE7260002005D
:100D300070475FEA400C08BF91F0000F4FEA8C2328
:100D40004FEAC12243EA51514FEA1C5018BF00F547
:100D5000F0404FEA300018BF41F000415FEA6C5CA0
:100D600000F02980BCF1FF3F08BF40F08040704791
:100D7000130C06BF12044FF0100C4FF0000C130EB2
:100D800004BF12020CF1080C130F04BF12010CF186
:100D9000040C930F04BF92000CF1020CD30F04BF9C
:100DA00052000CF1010C11464FF00002A0F11F009F
:100DB000A0EB0C00704711F0004F08BF704731F0F6
:100DC00000413FF4D5AF0B0C06BF09044FF0100CE7
:100DD0004FF0000C0B0E04BF09020CF1080C0B0FB6
:100DE00004BF09010CF1040C8B0F04BF89000CF146
:100DF000020CCB0F04BF49000CF1010CCCF1200315
:100E0000A0EB0C0022FA03F302FA0CF241EA030110
:100E100000F10100704720F07F4C80EA030023F0CE
:100E20007F47ACEB070303F57C5300F0004003F170
:100E3000FF032DE980494FEA154B09B44FEA1443EB
:100E400025EA0B4E24EA03480FF2042606EB13278B
:100E500049083E785FEA320203FB0667C7F50007E0
:100E600007FB06F64FEA54374FEAD64606F102066C
:100E700007FB066CCCF1005C4FEA1C472CEA074CE0
:100E800007FB06F40CFB06F504EB15464FEA961635
:100E900034BF00204FF000404FEAD13706FB07FC7B
:100EA0004FEA1C4C0CFB0BF7D21B03FB0CF761EB5E
:100EB00007010CFB0EF7B0EB074072EB17420CFB7F
:100EC00008F734BFA2EB0742B2EB074261EB1741D0
:100ED0004FEA0C444FEA910706FB07FC4FEA1C4C13
:100EE0000CFB0BF7B0EBC74072EB573203FB0CF770
:100EF00034BFA2EBC742B2EBC74261EB57310CFBE8
:100F00000EF7B0EBC70072EB57720CFB08F734BF5B
:100F1000A2EBC702B2EBC70261EB5771039F4FEA26
:100F2000816141EA921104EBCC044FEAD1374FEAD8
:100F3000826206FB07FC42EA90124FEA80604FEAA9
:100F40001C4C0CFB0BF7D21B03FB0CF761EB0701EE
:100F50000CFB0EF7B0EB074072EB17420CFB08F7E7
:100F600034BFA2EB0742B2EB074261EB17414FEAF5
:100F70008C554FEA910704EB9C2406FB07FC4FEAD3
:100F80001C4C0CFB0BF7B0EBC74072EB573203FB6A
:100F90000CF734BFA2EBC742B2EBC74261EB57314B
:100FA0000CFB0EF7B0EBC70072EB57720CFB08F7A7
:100FB00034BFA2EBC702B2EBC70261EB577115EB6E
:100FC0004C254FEA816141EA92114FEA82624FEA71
:100FD000D13742EA901206FB07FC44F100044FEAC5
:100FE00080604FEA1C4C0CFB0BF7D21B03FB0CF789
:100FF00061EB07010CFB0EF7B0EB074072EB1742F9
:101000000CFB08F734BFA2EB0742B2EB074261EBDF
:10101000174115EB1C154FEA813141EA92414FEA25
:10102000823242EA90424FEA80304FEA0C7644F135
:10103000000448EA03434EEA0B484FF0000EB2EBBF
:10104000080C71EB030724BF624639464EEB0E0EC7
:101050004FF0000B0018524149414BEB0B0BB2EB28
:10106000080C71EB03077BF1000B24BF6246394685
:101070004EEB0E0E4FF0000B0018524149414BEB66
:101080000B0BB2EB080C71EB03077BF1000B24BFD9
:10109000624639464EEB0E0E51EA020718BF46F083
:1010A000010616EB0E7655F1000254F1000103D54E
:1010B000BDE88901BDE80088BDE88901BDE80048B8
:1010C000B619524141EB0101A3F101037047808041
:1010D0007F7E7D7C7B7A7978777676757473727192
:1010E00071706F6E6E6D6C6C6B6A6A69686867664A
:1010F00066656464636362616160605F5F5E5E5DDC
:101100005D5C5C5B5B5A5A5959585857575656554F
:1011100055555454535352525251515050504F4FB1
:101120004F4E4E4D4D4D4C4C4C4B4B4B4A4A4A4901
:101130004949484848474747474646464545454444
:101140004444444343434342424242414141002BD1
:101150009C4630D477002BD01CB54FEA370703B438
:101160004FF010004FF01001BAF1000F06D0BCF1A3
:10117000000FDCBF40F0080040F008014FF0000015
:101180000FBCBDE810400BF1010BBBF1010F08BF14
:101190005FEA170722BF12F1010211F101014FF0BE
:1011A000004143F1000300F0004043EA00007047B3
:1011B000F9D35708D0E746EA064613F1400F4FEA45
:1011C00016461FDD13F1200FDFBF16430A4600212C
:1011D00020335B42BED0C3F1200746EA064602FA3E
:1011E00007F74FEA164646EA0706C3F1200722FA38
:1011F00003F201FA07F721FA03F14FF0000342EA84
:101200000702A7E746EA020646EA06464FEA1646FE
:1012100046EA0106BCBF46EA0646360C4FF000031C
:101220004FF000024FF0000194E72DE9804C9A4600
:10123000934670B491E8380007C831EA400C48BFC3
:1012400034EA430C03D5FFF7E6FDFFF780FFF0BC5F
:10125000BDE8008C2DE9804C9A46934670B491E825
:10126000380007C810F0804F08BF13F0804F03D13B
:1012700000F005F8FFF76BFFF0BCBDE8008C20F034
:101280007F4780EA030023F07F4C07EB0C03A3F5B4
:101290007C5300F00040A3F1FE0392F0000F00F039
:1012A000B38095F0000F00F077802DE901494FEAF7
:1012B00011404FEA144621EA004800FB06FC24EAEC
:1012C000064708FB06F607FB08F800FB07F718EBD4
:1012D00006484CEB164C4FEA124B18EB07484FEA06
:1012E00015464CEB174022EA0B4E0BFB06FC25EA99
:1012F00006470EFB06F607FB0EFE0BFB07F71EEB81
:10130000064E4CEB164C4FF000061EEB074E4CEB16
:10131000174B18EB0B0840F1000018EB0E0B58EBC5
:10132000000840F100008F1A4FF000013CBFC94394
:10133000661B14BFB5EB040C00213CBFC943F61B70
:101340004FEA17444EEA8E0E27EA04454FEA1C473F
:1013500004FB07622CEA074C05FB07F70CFB05F6BC
:1013600004FB0CFC16EB074642EB174216EB0C464F
:1013700042EB1C421BEB060658EB0202414146EAD7
:101380009E0601D5BDE80189B619524141EB010124
:10139000A3F10103BDE801894FEA14454FEA114763
:1013A00024EA054621EA074C05FB07F406FB07F78C
:1013B0000CFB06F105FB0CFC11EB074144EB174459
:1013C0004FEA124711EB0C4144EB1C4422EA074C54
:1013D00005FB07F206FB07F70CFB06F605FB0CFC0A
:1013E00016EB074642EB174216EB0C4642EB1C4548
:1013F0006A1854F1000148BF7047B619524141EBD9
:101400000101A3F10103704795F0000F37D04FEAB7
:1014100011424FEA144721EA024624EA074C02FB34
:1014200007F106FB07F70CFB06F402FB0CFC14EBC0
:10143000074441EB17414FEA154714EB0C4441EBCD
:101440001C4125EA074C02FB07F506FB07F70CFBDE
:1014500006F602FB0CFC16EB074645EB174516EBB0
:101460000C4645EB1C42121951F1000148BF704770
:10147000B619524141EB0101A3F1010370474FEA54
:1014800014454FEA114724EA054621EA074C05FBBB
:1014900007F106FB07F70CFB06F24FF0000605FB11
:1014A0000CFC12EB074241EB174112EB0C4251EBE3
:1014B0001C4148BF7047921841EB0101A3F10103A1
:1014C000704700001148816940F205221143816193
:1014D0000F490A686FF30B020A60416841F400414A
:1014E00041600C48016841F001010160016841F070
:1014F0000801016001680907FCD40648083001684A
:1015000040F2FF12114301607047000000100240DA
:1015100000080140082401400849086007482C38A9
:10152000016841F00101016004483438016889070D
:10153000FCD502481830006880B27047342401405E
:10154000FEE70000094B00B5002159640849D96441
:10155000186501F05BFA986490205864586C40F06C
:101560000100586418688004FCD500BD00000240EA
:10157000043801407047000070B5044600F004F9DB
:101580000546601C02D004480078044400F0FCF8D2
:10159000401BA042FAD370BD440000202DE9F84F53
:1015A000DFF8B8910024A9F1040B23460F2709F1B5
:1015B000040AABF1040EC9E00125A5402A40AA4265
:1015C0007DD1674ED1F804C0ACEB0608B44532D0EB
:1015D00014DCBCF1030F3AD009DCBCF1000F2AD0B7
:1015E000BCF1010F1CD0BCF1020F31D11DE0BCF1E8
:1015F000110F17D0BCF1120F2AD119E0B8F5881FCE
:1016000019D006DCB8F5803F15D0B8F5801F1FD182
:1016100011E0B8F5001F0ED0B8F5041F18D10AE08C
:10162000CB6815E0CB681B1D12E0CB6808330FE0D8
:10163000CB680C330CE08B682BB1012B4FF0080307
:1016400003D0456104E0042302E0056100E00023CB
:10165000FF2A01D8064601E000F104064FEA84059E
:1016600001D9A5F12005D6F8008007FA05FC28EA83
:101670000C0803FA05F548EA0508C6F800804D682D
:10168000ED0062D5374DAE6946F00106AE61AD6939
:1016900024F0030605F001050095334D06EB050C1B
:1016A000DCF80850A607360F07FA06F825EA080501
:1016B000DFF8B880404503D14FF0000817E044E060
:1016C000DFF8AC80404502D14FF001080FE0DFF8B1
:1016D000A480404502D14FF0020808E0DFF898806E
:1016E000404502D14FF0030801E04FF0040808FA2A
:1016F00006F848EA0508CCF808804D68D9F800607B
:10170000ED024D4601D5164300E096432E604D682C
:10171000DAF80060AD02554601D5164300E0964365
:101720002E604D68DBF80060AD035D4601D51643C1
:1017300000E096432E604D68DEF80060ED037546CC
:1017400001D5164300E096432E60641C0D682A46BE
:10175000E5407FF431AFBDE8F88F00000804014098
:10176000000011100010024000000140000801407C
:10177000000C014000100140001401400AB1016159
:1017800070470904FBE700000148806870470000CB
:10179000440000200248816802781144816070474B
:1017A00044000020074810B5016841F010010160B5
:1017B000032000F0A7F80F2000F006F800F050F822
:1017C000002010BD0020024030B505461F4887B0FC
:1017D000C16941F00401C161C06906A900F00400BB
:1017E000009001A800F036F90498B0B100F052F969
:1017F00040001749174AB0FBF1F11748491E026033
:10180000416040F2E7320021C0E90321816081613B
:1018100000F0F3FD040003D015E000F03BF9E8E729
:101820000D4800F019FE04000DD11E2000F03CF818
:10183000102D07D2002229461E2000F043F8074849
:10184000056000E0012407B0204630BD00100240D2
:1018500040420F00000800403001002048000020F6
:101860000F4808B5816941F001018161816901F08A
:1018700001010091C16941F08051C161C06900223C
:1018800000F0805000900F21901E00F01BF80548DA
:10189000416821F0E06141F00071416008BD000045
:1018A0000010024000000140002809DB00F01F0288
:1018B000012191404009800000F1E020C0F80011B2
:1018C00070470000F0B40E4B1B680C46C3F30223B4
:1018D000C3F10705042D00D90425191D072901D2DC
:1018E000002300E0DB1E012606FA05F1491E214017
:1018F00099409E40761E16403143F0BC00F0EFBF89
:101900000CED00E0064900F0070208684FF6FF03FF
:10191000184040EA0220034A104308607047000064
:101920000CED00E00000FA052DE9F0470F46050038
:1019300061D0434E306800F00700B84209D23068E9
:1019400020F0070038433060306800F00700B842EC
:1019500051D128683B4C810712D5400703D56068F8
:1019600040F4E06060602878000703D5606840F4C8
:10197000605060606068A96820F0F0000843606013
:101980002878C00728D06868012810D0216802286C
:1019900010D0890700292EDA616821F00301014384
:1019A0006160FFF7F1FE804641F288390DE0216861
:1019B0008903EFE78901EDE7FFF7E6FEA0EB0801F9
:1019C000494502D90320BDE8F0876068696800F0E6
:1019D0000C00B0EB810FEFD1306800F00700B84287
:1019E0000BD9306820F0070038433060306800F0D1
:1019F0000700B84201D00120E5E72878400705D567
:101A00006068E96820F4E0600843606028780007B7
:101A100006D56068296920F4605040EAC100606022
:101A200000F048F86168084AC1F30311515CC840EE
:101A30000649086006480068FFF7C6FE0020C2E7B6
:101A40000020024000100240A6550008500000206F
:101A5000480000200F2202600C4A536803F0030381
:101A60004360536803F0F0038360536803F4E0635A
:101A7000C36052684FF4E06303EAD2020261044893
:101A8000006800F007000860704700000010024086
:101A9000002002400448054900684968044AC1F32F
:101AA0000221515CC84070475000002000100240E5
:101AB000B65500080E4A51680E4801F00C03042B7D
:101AC00011D0082B0FD10C48C1F38343C903C05C6C
:101AD0000AD55168084AC1F34041921E515C054A3B
:101AE0005043B0FBF1F07047044948437047000091
:101AF0000010024000127A009655000800093D00CF
:101B00002DE9F84F040070D02078C04DC00749D0AF
:101B10006868C0F38100012807D06868C0F38100BD
:101B2000022809D16868C00306D52868800339D522
:101B300060680028E7D035E06068B0F5803F0BD0E2
:101B400010B1B0F5A02F11D0286820F480302860A3
:101B5000286820F4802002E0286840F48030286063
:101B6000606890B1FFF710FE06460AE0286840F46E
:101B700080202860F0E700BFFFF706FE801B642886
:101B800073D828688003F7D50CE0FFF7FDFD064603
:101B900005E000BFFFF7F8FD801B6428F0D8286837
:101BA0008003F7D420789A4E80074FF001094FF058
:101BB000000839D5686810F00C0F07D06868C0F3CA
:101BC0008100022809D16868C00306D4286880070C
:101BD00014D52069012808D110E02069B0B1C6F8F9
:101BE0000090FFF7D1FD074605E00AE1FFF7CCFDC5
:101BF000C01B0228C4D828688007F7D52868616907
:101C000020F0F80040EAC10028600DE0C6F800802E
:101C1000FFF7BAFD074604E0FFF7B6FDC01B022838
:101C200023D828688007F7D4207800072CD5794876
:101C3000A169D9B1C0F80090FFF7A6FD074604E0FE
:101C4000FFF7A2FDC01B02280FD8686A8007F7D5EE
:101C500071484FF4FA510068B0FBF1F0009000BFFA
:101C60000098411E0091FAD20EE080E0C0F800809A
:101C7000FFF78AFD074604E0FFF786FDC01B022838
:101C800075D8686A8007F7D42078400760D5E8697E
:101C90000027C00008D4E86940F08050E861E86996
:101CA000012700F0805000905C480168C90513D4FA
:101CB0000168834641F480710160FFF765FD82464B
:101CC00006E000BFFFF760FDA0EB0A0064284ED8D5
:101CD000DBF80000C005F5D5E06801280AD008B19E
:101CE000052813D0286A20F001002862286A20F015
:101CF000040002E0286A40F001002862E06841F236
:101D0000883B98B1FFF740FD82460BE0286A40F01F
:101D100004002862EEE700BFFFF736FDA0EB0A01E2
:101D200059455AD8286A8007F6D50CE0FFF72CFDF4
:101D3000824605E0FFF728FDA0EB0A0159454CD883
:101D4000286A8007F6D41FB1E86920F08050E86166
:101D5000E06988B36968C1F38101022944D002288F
:101D6000C6F8608004D0FFF70FFD044638E034E089
:101D7000FFF70AFD074604E0FFF706FDC01B022837
:101D80002BD828688001F7D4206AB0F5803F05D1B0
:101D90006868A16820F4003008436860D4E908014D
:101DA0000843696821F4741108436860C6F86090BC
:101DB000FFF7EAFC044606E025E000BFFFF7E4FC7D
:101DC000001B022809D828688001F7D51BE000BF56
:101DD000FFF7DAFC001B022802D90320BDE8F88FC8
:101DE00028688001F4D40EE00128F7D06868226AE0
:101DF00000F48031914204D1616A00F4701088428D
:101E000001D00120EAE70020E8E7000000100240CE
:101E10000000424280044242500000200070004016
:101E200070B5040009D0606A002540B12561656184
:101E3000A56294F8510040B10CE0012070BD6068CB
:101E4000B0F5827FF4D0E561F2E784F85050204687
:101E500000F040F8022084F851002068016821F069
:101E600040010160A088218900F4827001F40441DE
:101E70000843A18901F400610843217C01F00201BB
:101E80000843217D01F001010843218B01F4007119
:101E90000843217F01F03801084394F8201001F035
:101EA00080010843218D01F4005108432168086036
:101EB000A069042101EA1040216848602068C169D6
:101EC00021F40061C1616565012084F851000020A2
:101ED00070BD000030B585B00024009401940294D8
:101EE000039400681449884223D11448816941F45D
:101EF00080518161816901F480510491816941F0CF
:101F00000401816180690E4D00F004000490A0205E
:101F10000090022001900320039069462846FFF7B5
:101F20003DFB4020CDE90004694628460294FFF7B6
:101F300035FB05B030BD000000300140001002400C
:101F4000000801402DE9F84F044690F851009846EA
:101F500016460F460025012801D0022598E060684A
:101F60004FF0040BB0F5827F01D1A068F8B194F86E
:101F70005000012826D04FF0010984F85090FFF757
:101F800003FC8246002F7FD0002E7DD084F851B014
:101F900000206065A763A687E6872063A086E086A9
:101FA00020646064A068B0F5004F0DD016E084F89E
:101FB00051B013460A462046CDF8008000F024F9BF
:101FC000BDE8F88F0220FBE72068016821F040019E
:101FD00001602068016821F4804101602068016887
:101FE000490603D4016841F040010160E068D8B1BE
:101FF0003BE020688168C90709D0007BA16B0870AD
:10200000A06B401CA063E08F401EE0870CE0FFF750
:10201000BBFBA0EB0A01414503D3B8F1FF3F03D05E
:1020200006E0B8F1000F03D0E08F0028E1D11FE0F7
:1020300003252BE020688168C90709D0C068A16B1F
:102040000880A06B801CA063E08F401EE0870CE03E
:10205000FFF79AFBA0EB0A01414503D3B8F1FF3F1C
:1020600003D0E5E7B8F1000FE2D0E08F0028E1D11E
:1020700052464146204600F001FB08B12020606531
:10208000606D00E000E008B1012501E084F85190A6
:10209000002084F85000284692E72DE9F84F0446C6
:1020A00090F850000026984615468A4601280CD024
:1020B000012784F85070FFF767FB814694F85100C0
:1020C000B346012804D002269AE00220BDE8F88F2A
:1020D000BAF1000F6FD0002D6DD0032084F85100AD
:1020E000C4F854B0C4F830A0A586E586C4F838B06A
:1020F000A4F83CB0A4F83EB0C4F844B0C4F840B072
:10210000A068B0F5004F09D12068016821F04001B6
:1021100001602068016841F4804101602068016825
:10212000490603D4016841F040010160E068B0F560
:10213000006F606803D058B3012D29D049E008B181
:10214000012D1FD1206B21680088C86006E020683F
:102150008168890709D5216B0988C160206B801CC3
:102160002063E08E401EE0860CE0FFF70DFBA0EB45
:102170000901414503D3B8F1FF3F03D006E0B8F1B0
:10218000000F03D0E08E0028E1D125E0032635E0E2
:10219000206B21680078087306E020688168890751
:1021A0000AD5216B09780173206B401C2063E08EF7
:1021B000401EE0860DE01FE0FFF7E6FAA0EB090104
:1021C000414503D3B8F1FF3F03D0DFE7B8F1000F7B
:1021D000DCD0E08E0028E0D14A464146204600F09F
:1021E0007BFA08B120206065A06818B92068C16832
:1021F00080680090606D08B1012601E084F851709C
:1022000084F850B0304661E72DE9FF4F81B00446B5
:1022100090F8500000260E9F1D4693464FF001098E
:1022200001280FD04FF0010A84F850A0FFF7ACFA54
:10223000804694F85100616801280DD0B1F5827F85
:1022400008D103E0022005B0BDE8F08FA16809B90C
:10225000042801D00226C9E00298002865D0BBF10D
:10226000000FFBD0002DF9D094F85100042802D0C3
:10227000052084F8510000206065C4F838B0E58777
:10228000A58702992163E586A5862064606420689D
:102290000168490603D4016841F040010160E0682B
:1022A000B0F5006F606803D0F0B3012D47D081E036
:1022B00008B1012D3CD1206B21680088C860206BDB
:1022C000801C2063E08E401EE08631E0206881683B
:1022D00089070FD5E18E69B1B9F1010F0AD1216BE0
:1022E0000988C160206B801C2063E08E401EE08660
:1022F0004FF0000920688168C9070CD0E18F51B107
:10230000C068A16B0880A06B801CA063E08F401E9A
:10231000E0874FF00109FFF737FAA0EB0800B84259
:1023200006D3781C04D001E009E05BE003265BE003
:10233000E08E0028CAD1E08F0028C7D140E0206B92
:10234000216800780873206B401C2063E08E401EDB
:10235000E0862FE02068816889070FD5E18E69B19A
:10236000B9F1010F0AD1216B09780173206B401C70
:102370002063E08E401EE0864FF0000920688168EF
:10238000C9070CD0E18F51B1C068A16B0870A06B78
:10239000401CA063E08F401EE0874FF00109FFF76B
:1023A000F3F9A0EB0800B84202D3781C02D0BAE7D8
:1023B000002FB8D0E08E0028CCD1E08F0028C9D102
:1023C00042463946204600F087F918B10126202000
:1023D00060650BE0A06818B92068C168806800904B
:1023E000606D08B1012601E084F851A0002084F856
:1023F0005000304627E77047704710B5040003D0FF
:1024000094F83D0010B107E0012010BD002084F8D1
:102410003C00204600F01EF8022084F83D00211DFB
:10242000206800F011FA012084F8460084F83E008C
:1024300084F83F0084F8400084F8410084F84200AA
:1024400084F8430084F8440084F8450084F83D0093
:10245000002010BD7047000090F83D10012901D008
:1024600001207047022180F83D100168CA6842F0DF
:102470000102CA6000680B49884208D0B0F1804F61
:1024800005D00949884202D00849884204D18168B0
:1024900001F00701062903D0016841F00101016044
:1024A00000207047002C014000040040000800405C
:1024B000704770B50446006801694FF00005C943D4
:1024C000890715D4C168C943890711D4E91E016180
:1024D00001202077206880698007204602D0FFF71E
:1024E000E7FF04E000F098F8204600F096F8257722
:1024F00020680169C943490717D4C168C94349071E
:1025000013D46FF0040101610220207720688069F4
:1025100010F4407F204602D0FFF7CAFF04E000F02D
:102520007BF8204600F079F8257720680169C943D7
:10253000090716D4C168C943090712D46FF008010E
:102540000161042020772068C0698007204602D0FE
:10255000FFF7AEFF04E000F05FF8204600F05DF802
:10256000257720680169C943C90617D4C168C943E2
:10257000C90613D46FF0100101610820207720688C
:10258000C06910F4407F204602D0FFF791FF04E0BD
:1025900000F042F8204600F040F8257720680169F5
:1025A000C943C90708D1C168C943C90704D1891EF5
:1025B0000161204600F032F820680169C94309062C
:1025C00009D4C168C943090605D46FF080010161CF
:1025D0002046FFF710FF20680169C943490609D466
:1025E000C168C943490605D46FF040010161204626
:1025F00000F01EF820680169C94389060BD4C16840
:10260000C943890607D46FF0200101612046BDE867
:102610007040FFF7F1BE70BD704770470068034916
:10262000884201D1FFF7B6B87047000000080040AB
:102630007047FEE70F4810B50D4901604FF48271F5
:102640004160002102228160C0E90312012242613F
:10265000520282612022C0E90721416281620A217F
:10266000C162FFF7DDFB002801D072B6FEE710BDA6
:1026700000300140CC000020FEE7FEE7F8B504463C
:1026800040684FF48273984217D1A0684FF4806578
:10269000B0F5004F01D0A8420FD12068066826F09F
:1026A000400606606068984207D1A068A84204D13D
:1026B00000920B460022012103E000920B4600220B
:1026C0008021204600F018F8002804D0606D40F00A
:1026D000200060650320F8BD38B50B460092044623
:1026E0000022802100F008F8002804D0606D40F03E
:1026F00020006065032038BD2DE9F8431E46914651
:1027000088460446089DFFF73FF8401B351AFFF73F
:102710003BF8074625480068C0F3CB30684338E0F3
:10272000701C37D0FFF730F8C01BA84203D215B198
:10273000009860B32CE02068416821F0E00141601E
:102740006068B0F5827F0BD1A068B0F5004F02D071
:10275000B0F5806F04D12068016821F0400101606C
:10276000A06AB0F5005F09D12068016821F400512A
:1027700001602068016841F400510160012084F883
:102780005100002084F850000320BDE8F8830025A4
:10279000401E00902068816838EA010004D00021C2
:1027A0004945BDD10020F0E70121F9E750000020A4
:1027B00010B5502080F31188BFF34F8FBFF36F8F98
:1027C00001F048FD18B104494FF080500860002026
:1027D00080F3118810BD000004ED00E030B58FB02B
:1027E00028216846FDF71DFE14210AA8FDF719FEF1
:1027F00001210804CDE9001000240294022504916F
:10280000CDE907504FF4E01009906846FFF778F9DA
:1028100008B172B6FEE70F20CDE90A054FF48060DB
:10282000CDE90C4002210AA80E94FFF77DF800289C
:1028300001D072B6FEE70FB030BD70470148FFF718
:1028400038BE000030010020F0B50268164B174C6E
:10285000174D4FF08047984205D0B84203D0A042B0
:1028600001D0A84203D122F070064A683243984250
:1028700005D0B84203D0A04201D0A84203D122F42F
:102880004074CA6822434C6922F0800222430260ED
:102890008A68C2620A688262984201D1096901634A
:1028A00001214161F0BD0000002C01400004004006
:1028B00000080040FEE7490050EAC12018BF04208C
:1028C0004A0D18BF40F0010040F2FF72B2EB515FB9
:1028D00008BF40F00200012808BF05207047090723
:1028E000090E002804DB00F1E02080F80014704796
:1028F00000F00F0000F1E02080F8141D7047000088
:102900000E4810B5816941F0080181610C480168E9
:1029100021F070610160016841F0007101600121E6
:10292000312000F033F800212D2000F02FF808218D
:10293000BDE810402D2000F029B800000010024032
:10294000000C014031B50F4C9DF80000002240F012
:10295000C0008DF8000040212046FEF70FFF6423E1
:10296000012269460848FFF798FB074964230622BD
:1029700058310548FFF7E6FA012240212046FEF7CC
:10298000FDFE38BD000C0140CC00002038B540F001
:1029900040008DF800000A4C8DF801100022402103
:1029A0002046FEF7EBFE6423022269460548FFF746
:1029B00074FB012240212046FEF7E0FE38BD0000F6
:1029C000000C0140CC00002010B50E4A0E4C1188BE
:1029D0002180508860809288494300FB001002FBF0
:1029E0000200A28002F05EFC10F1FF4F01D380F0E4
:1029F000004002F0FBFA00F08FFD01F0E3FDA06063
:102A000010BD00002401002000000020014600202D
:102A10000A5C002A01D0401CFAE7704708B5FEF7AF
:102A2000C1FEFFF7DBFE1848816941F0200181619A
:102A3000816901F020010091816941F00401816107
:102A4000816901F004010091816941F0080181610F
:102A5000806900F008000090FFF7ECFD00F01EF820
:102A600000F09EF8094A0021094800F0D5F8094C09
:102A7000064A0021E0632432074800F0CDF82064C4
:102A800000F0AAF8FEE70000001002404C550008D4
:102A90008136000800000020653500081C4810B58C
:102AA000416941F001014161816944F2FC02114335
:102AB00081611848016841F48061016000F07AFE8C
:102AC000154980200860FFF71BFFFEF7FBFC4FF461
:102AD0007A70FEF751FD11A0FEF734FD0120FEF7DC
:102AE0004BFD11A0FEF72EFD0120FEF745FD12A0C3
:102AF000FEF728FD41F28830FEF73EFD17A0FEF7F5
:102B000021FDBDE8104040F6B830FEF735BD0000AD
:102B1000001002400C0801401438014041542B526F
:102B200053540D0A0000000041542B43574D4F44AD
:102B3000453D310D0A00000041542B43574A415096
:102B40003D2262656C6B696E2E663932222C2270D2
:102B5000617373776F7264220D0A000041542B4336
:102B600049504D55583D300D0A00000010B5EFF3A7
:102B7000058149B9EFF3108131B908490968022983
:102B800005D1EFF3118111B16FF0050403E00024CA
:102B900008B100F05DFF204610BD0000A400002039
:102BA000EFF3058058B9EFF3108040B90949086880
:102BB000022801D030B109E0EFF3118030B16FF09D
:102BC0000500704701200860002070474FF0FF307B
:102BD00070470000A400002010B5EFF3058060B935
:102BE000EFF3108048B90B490868022802D0012889
:102BF00006D00BE0EFF3118040B16FF0050010BD7F
:102C00000220086000F08CFF002010BD4FF0FF3064
:102C100010BD0000A4000020F0B585B04FEA01030C
:102C20004FF00004EFF305810394A1BBEFF3108193
:102C300089BB21490968022902D1EFF3118151BBF7
:102C400048B3802618218DF8104004AD42B31768B0
:102C500007B13D4697691FB139467F1E382F02D212
:102C60001779FF0702D0002005B0F0BD576907B102
:102C7000BE08D2F808C0BCF1000F0DD0D4685C2C9F
:102C800018D312693AB137B18DE806103246294699
:102C900001F0A1FA03900DE0D7685FB912694AB953
:102CA00003AACDE90012B2B2294601F067FA012861
:102CB00000D003940398D7E7A40000202DE9F04149
:102CC000134C0F46054666692068001D00F090FD14
:102CD000681C07D137B12168BDE8F0410D48091DD6
:102CE00000F0D6BD20683544B5424560216805D264
:102CF000A068BDE8F041091D00F0B2BD6068091D83
:102D000000F0AEFD206B854200D22563BDE8F08166
:102D100054000020680600202DE9F041054600F02F
:102D2000C3FD2D4C2069401C206120682B4F10B141
:102D3000E06930B32BE025602069012827D1002607
:102D400006EB860007EB800000F07CFD761C382E39
:102D5000F6D3234800F076FD2148143000F072FDD0
:102D60001F48283000F06EFD1D483C3000F06AFD21
:102D70001B48503000F066FD194860601430A060B8
:102D800005E02068E96AC06A884200D82560E06AE8
:102D9000401CE0626864E86AA169884200D9A061C9
:102DA00000EB800007EB8000291D00F071FD00F0B2
:102DB0009BFDE06900280CD02068E96AC06A88425F
:102DC00007D208494FF080500860BFF34F8FBFF320
:102DD0006F8FBDE8F081000054000020B801002092
:102DE0001806002004ED00E038B500F05DFD104C41
:102DF000A068C8B90F4800F025FD0E48143000F057
:102E000021FD0C482060143060600A4B00202833FC
:102E1000009003F1500210210A2000F053FFA0603F
:102E200010B105A100F0DEFDBDE8384000F05CBD4A
:102E3000900000207C060020546D725100000000BC
:102E400030B4026C0B46002A0BD0C1681144C1603B
:102E50004468A14201D30168C16030BC1846FDF747
:102E600093BA30BC70472DE9F041856B1746044694
:102E70000026026C82B1C7B1E068FDF785FAE1680F
:102E8000206C091AE1602268914202D26168081A36
:102E9000E060022F16D017E02068A8B9606801F042
:102EA0003DFA0646002060600EE0A068FDF76CFA6F
:102EB000216CA0680844A0606168884204D320683F
:102EC000A06001E005B16D1E6D1CA5633046BDE834
:102ED000F08110B5044690F8590058B101280CD083
:102EE00002280FD0502080F31188BFF34F8FBFF31B
:102EF0006F8FFEE7206B00F00BFD2046BDE8104011
:102F000000F006BD10BD000010484FF440614207BC
:102F100006D0C01D0D4920F00700411AC1F54061DF
:102F20000B4A00230144C2E900030839103A21F09A
:102F3000070111604B600B600B1AC0E9001393602E
:102F40004FF000405360D060704700004C0E0020EE
:102F5000B8000020144E154CA6F29C474FF0805844
:102F6000DFF84C9012E000BF00F09EFCF068C568EE
:102F7000281D00F03DFC2069401E2061E068401ED5
:102F8000E06000F0B1FC2846FFF7A3FFE0680028EE
:102F9000EAD138680128F9D9C9F80080BFF34F8F0A
:102FA000BFF36F8FF2E700005406002054000020AA
:102FB00004ED00E070B51D46049C51B1C4F800203A
:102FC000C4E90F010121204600F0B0FE84F84C5006
:102FD00070BD2460F4E72DE9F0470E46DDE9098471
:102FE0001746824691009946089DA522206BFDF761
:102FF00010FA6FF00301206B01EB8701084420F009
:103000000707780707D0502080F31188BFF34F8F50
:10301000BFF36F8FFEE72218315C82F83410315C09
:1030200011B1401C1028F6D3002684F84360382DD7
:1030300000D33725E562C4E91356201D00F00DFCCE
:1030400004F1180000F009FC2461C5F13800646245
:10305000A061666584F858604A465146384600F0DB
:103060003BFA2060B8F1000F01D0C8F80040BDE87D
:10307000F087000030B5114900E011460A6882422D
:10308000FBD34B685C18844203D140681844486005
:10309000084643681C18944209D1084C103C246827
:1030A000A24209D052681A4442600A68126802605B
:1030B000814200D0086030BD0460F9E7B80000200C
:1030C00070B5002441600B4D0061914206D8D11AC1
:1030D0008269914206D2011D686807E09A4203D2D4
:1030E000994201D3012403E0011D286800F0B8FBD8
:1030F000204670BD9000002010B5044600F0D4FBBF
:10310000A06B28B15FF0000400F0EEFB204610BD7C
:103110000124F9E730B589B0304D55E00498002816
:1031200006DADDE90601059A9047049800284BDB92
:10313000069C606910B1201D00F05AFB02A800F047
:10314000B9F8024604980A283ED2DFE800F00505E7
:10315000053D263705053D260598A169034601442E
:103160002046FFF7ADFF00B3616A20468847E0695B
:10317000012829D1002000900598A1690023421858
:103180001946204601F0D4F978B9502080F311880F
:10319000BFF34F8FBFF36F8FFEE70598A06128B193
:1031A000811813462046FFF78BFF0DE0502080F377
:1031B0001188BFF34F8FBFF36F8FFEE794F82C0099
:1031C00010B9204600F0A4FB002204A9A86800F072
:1031D000FFFE0028A2D109B030BD00009000002001
:1031E0002DE9FC410F46054600F0DEFC01A800F089
:1031F00061F80446019818B101F008F9BDE8FC81B6
:10320000224EAFB170680068A8B30027291B3A4668
:10321000B06800F0FBFB01F0F9F80028EED11C4982
:103220004FF080500860BFF34F8FBFF36F8FE5E71B
:10323000A542EBD801F0EAF830682746C068C468B8
:10324000201D00F0D5FAE069012810D1A0692B46B5
:1032500041193A462046FFF733FF40B100200346AC
:10326000014600902A46204601F062F920B1616AC9
:1032700020468847C2E707E0502080F31188BFF35B
:103280004F8FBFF36F8FFEE70127BFE7900000204D
:1032900004ED00E006484168096829B14168C96841
:1032A000C9684968016370474FF0FF31FAE70000D1
:1032B0005400002070B5054600F0C6FF064E0446D7
:1032C0003069844203D200F009F8012000E00020B8
:1032D00028602046346170BD90000020F8B5194D7B
:1032E0001FE0C068C4680668201D00F081FA616AAA
:1032F00020468847E069012813D1A0693044B042D4
:1033000006D924616060211D286800F0A9FA08E050
:1033100000200346014600903246204601F008F99D
:1033200038B1286801680029DBD16968C5E9001057
:10333000F8BD502080F31188BFF34F8FBFF36F8F1C
:10334000FEE700009000002008484068401C4FF055
:10335000500080F3118804D0BFF34F8FBFF36F8FFD
:10336000FEE7BFF34F8FBFF36F8FFEE7C000002073
:10337000074C2068016841B1C0680021D0F8000006
:10338000FFF72EFFFFF7C6FEF3E701210020F7E766
:10339000900000202DE9F041044600F085FA94F9F0
:1033A000455004F1240609E0606A48B1304600F057
:1033B000F5FF08B100F07AFB6D1E6DB2002DF3DC55
:1033C0004FF0FF3684F8456000F08EFA00F06CFA9A
:1033D00094F9445004F1100709E0206948B13846D7
:1033E00000F0DCFF08B100F061FB6D1E6DB2002D36
:1033F000F3DC84F84460BDE8F04100F075BA0000E9
:103400002DE9F0410546002700F0CEFB314E306833
:1034100008B9FFF779FDF06805424BD1C5B308350F
:1034200068070ED005F00700C0F1080005446807E2
:1034300007D0502080F31188BFF34F8FBFF36F8FF9
:10344000FEE72DB37068854234D82248103001461B
:103450000C6801E020460C466168A94202D221684E
:103460000029F7D131688C4224D0076821680160B7
:1034700060680837411B10290FD96019420708D02E
:10348000502080F31188BFF34F8FBFF36F8FFEE79B
:1034900010E041606560FFF7EDFD61687068401AFB
:1034A0007060B268904200D2B060F06801430020C2
:1034B000C4E9000100F0AAFF780707D0502080F38C
:1034C0001188BFF34F8FBFF36F8FFEE73846BDE81B
:1034D000F0810000A800002010B5031F4FF0807499
:1034E0001C601B1F21F001011960191F024B0B60AA
:1034F000143940380A6010BD4933000805480021DE
:103500008162C16281610163C16141630162816362
:1035100041627047000000202DE9F04106460F4649
:1035200001F094FB041E0D4618BF0120284320F033
:103530000040C0F17F6000F1E040C00F0ED0301CB1
:1035400018BF0120384320F00040C0F17F6000F137
:10355000E040C00F04BF0120FCF792FF204629463F
:10356000BDE8F081DFF8F880DFF8F890DFF8F8A028
:10357000DFF8F8B03E4C4FF0663740F6FF76A06AB1
:10358000401CA0623220FFF7DDF9FFF71DFAA168A9
:10359000E06A0D4601F056FDE0622846A16901F09F
:1035A0002CFF01D2A068A0610020FDF7B5FF01F05B
:1035B0003BFA3A46434601F04BFA00224B4601F0F3
:1035C000DBF800F0FFFF01F011FD52465B4601F011
:1035D00023FC284A284B01F0CFF800F0F3FF054602
:1035E00060612946A06B01F02DFDA0632846616A49
:1035F00001F003FF01D2606960620120FDF78CFFDA
:1036000001F068FE054620612946606B01F01AFD55
:1036100060632846216A01F0F0FE01D22069206231
:103620000220FDF779FF40F6E4414843B0FBF6F095
:1036300001F050FE114901F073FD0546E060294696
:10364000206B01F0FFFC20632846E16901F0D5FE04
:1036500001D2E068E0610A20FFF788FA8FE70000F6
:1036600066660A4000FEAF408FC2F5285C8FFA3FC5
:1036700000000020AE47E17A14AEC73F00002041B1
:10368000CEB0374CA06A01F00DFE05462946E06A2F
:1036900001F046FD4B902946A06B01F041FD0090E2
:1036A0002946606B01F03CFD05462EA0FDF74AFF60
:1036B0004FF47A70FFF75AFAE06901F097FC8246FE
:1036C0008B46206A01F092FC08908946284601F05A
:1036D0008DFC07468846606A01F088FC05460E4668
:1036E000009801F083FCCDE90201A06901F07EFCA5
:1036F00000900C464B9801F079FC0DF1100C0194F0
:103700008CE8E0010DF1240C0B468CE8000E02461B
:103710001F490CA8FCF7B4FD0CA8FFF777F9024687
:103720001CA13EA8FCF7ACFD3EA8FDF70BFF4FF433
:10373000FA70FFF71BFA0CA8FDF704FF41F288307E
:10374000FFF714FA17A0FDF7FDFE0120FDF714FFA7
:10375000FFF7D4FE43F69820FFF708FA91E7000040
:103760000000002041542B43495053544152543DD2
:1037700022544350222C226170692E7468696E674E
:10378000737065616B2E636F6D222C38300D0A00EB
:103790005456000841542B43495053454E443D254F
:1037A000640D0A0041542B434950434C4F53453D4F
:1037B000300D0A000B48816944F205021143816112
:1037C0000948016821F0F0010160016841F0B00191
:1037D0000160064940F271200860091D42F20C00A8
:1037E000086070470010024004080140083801409A
:1037F000D0E9013201699A60D0E901235A604A6830
:10380000824201D182684A60002202610868401E3B
:103810000860086870470000034B036003F15C0018
:10382000086080201060704794070020044B0360FC
:1038300003F15C0008604FF4807010607047000076
:10384000F009002000F108014FF0FF32C0E9011239
:10385000C160016100210160704700210161704772
:1038600030B50B685A1C02D000F1080202E0026970
:1038700004E02246546825689D42FAD953684B609B
:1038800099608A60516008610168491C016030BD1F
:1038900042684A6093688B609368596091600861E0
:1038A0000168491C01607047502080F31188BFF304
:1038B0004F8FBFF36F8F0A494868401C486001284A
:1038C0000CD10848006810F0FF0F07D0502080F39B
:1038D0001188BFF34F8FBFF36F8FFEE77047000073
:1038E000C000002004ED00E00849486828B1401EEF
:1038F000486001D180F311887047502080F311880F
:10390000BFF34F8FBFF36F8FFEE70000C0000020B2
:1039100070B5002827D0144DA0F108046168E8684C
:10392000014207D1502080F31188BFF34F8FBFF3BE
:103930006F8FFEE722683AB1502080F31188BFF301
:103940004F8FBFF36F8FFEE78143616000F02CF96A
:1039500060686968084468602046FFF78BFBBDE833
:10396000704000F053BD70BDA80000204FF0E02073
:1039700000210161816105494FF47A720968B1FB48
:10398000F2F1491E4161072101617047500000209A
:1039900010B5FCF751FC114910280ED300F1E020BE
:1039A00090F8F0030A78904207D2502080F31188F3
:1039B000BFF34F8FBFF36F8FFEE709480068896838
:1039C00000F4E060884207D9502080F31188BFF3EB
:1039D0004F8FBFF36F8FFEE710BD0000C0000020C7
:1039E0000CED00E010B5084B002200BF53F8324048
:1039F0001CB1521C082AF9D310BD43F8321003EB56
:103A0000C201486010BD00007801002070B5154665
:103A10000E460446FFF748FF94F944100020491C65
:103A200001D184F8440094F94510491C01D184F86F
:103A30004500FFF759FFA06B28B92A46314604F12B
:103A4000240000F051F82046BDE87040FFF7A2BC0A
:103A500010B5020014D00F48806B38B1502080F3AD
:103A60001188BFF34F8FBFF36F8FFEE700F09CF814
:103A700000211046FFF722F900F0C8FC002807D10A
:103A800005494FF080500860BFF34F8FBFF36F8F31
:103A900010BD00005400002004ED00E002498A6AD5
:103AA00002604969416070475400002001490120CB
:103AB000486270475400002010B50C4650B10949C7
:103AC00009681831FFF7CCFE2046BDE810400121FF
:103AD000FFF7F4B8502080F31188BFF34F8FBFF386
:103AE0006F8FFEE75400002070B514460D4668B194
:103AF0000A4909681831FFF7CBFE0CB14FF0FF35CA
:103B000021462846BDE87040FFF7D8B8502080F322
:103B10001188BFF34F8FBFF36F8FFEE75400002073
:103B200030B587B00024039405AA04A903A804941F
:103B3000FFF772FEDDE903010094CDE901100023D7
:103B400015A11748059A00F046FB164D002868633A
:103B50001FD000F0BDFC012809D0401C19D1502015
:103B600080F31188BFF34F8FBFF36F8FFEE75020B4
:103B700080F31188BFF34F8FBFF36F8F4FF0FF308B
:103B800028630120E8616C6107B0BDE8304000F0B7
:103B900045B807B030BD000049444C450000000066
:103BA000552F0008540000200248816B491C816396
:103BB0007047000054000020164810B5816B11B109
:103BC0000121416210BD002141628169124A01E078
:103BD000B9B1491E01EB810352F82330002BF7D015
:103BE00001EB810302EB830202F1080453685B6876
:103BF0005360A34201D15B685360DA68026081615F
:103C000010BD502080F31188BFF34F8FBFF36F8F2B
:103C1000FEE7000054000020B80100201CB5264932
:103C200008780190FF20087008788DF800009DF852
:103C300000009DF8002000F0F000904207D05020D6
:103C400080F31188BFF34F8FBFF36F8FFEE79DF8AE
:103C500000001A4B00F0500018700720986005E033
:103C60009DF8002052008DF80020401E9DF8002095
:103C70001206F5D49860032807D0502080F31188ED
:103C8000BFF34F8FBFF36F8FFEE74FF44070986024
:103C9000019808700A48016841F4700101600168E8
:103CA00041F070410160FFF761FE00205860FCF7B1
:103CB0008DFA00201CBD000000E400E0C0000020E0
:103CC00020ED00E038B5049D18B153B1CAB181B1FF
:103CD00020E0502080F31188BFF34F8FBFF36F8F28
:103CE000FEE7502080F31188BFF34F8FBFF36F8F33
:103CF000FEE7502080F31188BFF34F8FBFF36F8F23
:103D0000FEE739B1502080F31188BFF34F8FBFF326
:103D10006F8FFEE750241C46012384F846302B4663
:103D20000094FFF747F9204638BD000070B50D46F6
:103D3000040025D0FFF7B8FDD4E90F20216802FB6D
:103D4000001161600021A1632168A1600A46D4E9E5
:103D50000F01401E00FB0121E16021464FF0FF30C2
:103D600001F8440F487004F110008DB1FFF76AFDAF
:103D700004F12400FFF766FDFFF7B6FD012070BDDA
:103D8000502080F31188BFF34F8FBFF36F8FFEE792
:103D900021690029F0D000F001FB0028ECD0044993
:103DA0004FF080500860BFF34F8FBFF36F8FE3E792
:103DB00004ED00E02DE9FF4782B01D468A464FF032
:103DC0000008040003D0BAF1000F08D011E0502021
:103DD00080F31188BFF34F8FBFF36F8FFEE7206C26
:103DE00038B1502080F31188BFF34F8FBFF36F8F2E
:103DF000FEE7022D0AD1E06B012807D0502080F3A6
:103E00001188BFF34F8FBFF36F8FFEE700F00EFAFC
:103E10003F4F4FF000094FF0805648B9049838B131
:103E2000502080F31188BFF34F8FBFF36F8FFEE7F1
:103E3000FFF73AFDA06BE16B884207D3022D05D056
:103E40000498D0B1B8F1000F1AD01EE02A465146AE
:103E50002046FFF708F8616A19B104F1240000F068
:103E60009DFA20B13E60BFF34F8FBFF36F8FFFF716
:103E70003BFD012006B0BDE8F087FFF735FD22E0ED
:103E80006846FFF70BFE4FF00108FFF72DFDFFF727
:103E90008BFEFFF709FD94F94400401C01D184F822
:103EA000449094F94500401C01D184F84590FFF7F7
:103EB0001BFD04A9684600F027F930B12046FFF742
:103EC00069FA00F0A3FA0020D4E7FFF7EDFCA06B3D
:103ED000E16B884213D1FFF707FD04F1100004994C
:103EE000FFF7EAFD2046FFF755FA00F08FFA0028A9
:103EF0009ED13E60BFF34F8FBFF36F8F98E7FFF700
:103F0000F3FC2046FFF746FA00F080FA90E7000045
:103F100004ED00E02DE9F0471F4690468946040075
:103F200003D0B9F1000F08D011E0502080F31188C0
:103F3000BFF34F8FBFF36F8FFEE7206C38B1502077
:103F400080F31188BFF34F8FBFF36F8FFEE7022F0F
:103F50000AD1E06B012807D0502080F31188BFF30D
:103F60004F8FBFF36F8FFEE7FFF712FD5020EFF387
:103F7000118680F31188BFF34F8FBFF36F8FA06B53
:103F8000E16B884206D3022F04D0002086F311880B
:103F9000BDE8F08794F945503A4649462046FEF779
:103FA00062FF681C04D06D1C84F845500120EDE7C9
:103FB000606A0028FAD004F1240000F0EFF900282C
:103FC000F4D0B8F1000FF1D00121C8F80010EDE7EE
:103FD0002DE9F747002683B08A46040003D0BAF1E2
:103FE000000F08D011E0502080F31188BFF34F8FED
:103FF000BFF36F8FFEE7206C38B1502080F311883B
:10400000BFF34F8FBFF36F8FFEE700F00FF9DFF8BC
:10401000F4804FF000094FF0805748B9059838B147
:10402000502080F31188BFF34F8FBFF36F8FFEE7EF
:10403000FFF73AFCA56BC5B151462046FEF700FFDD
:104040006D1EA563206950B104F1100000F0A6F9BF
:1040500028B1C8F80070BFF34F8FBFF36F8FFFF721
:1040600043FC012006B0BDE8F087059808B11EB1F9
:1040700006E0FFF739FC27E06846FFF70FFD012651
:10408000FFF732FCFFF790FDFFF70EFC94F94400B8
:10409000401C01D184F8449094F94500401C01D1A2
:1040A00084F84590FFF720FC05A9684600F02CF83D
:1040B000002820460AD0FFF76DF900F0A7F9204646
:1040C000FFF71AF80028B3D00020CBE7FFF714F869
:1040D00090B104F124000599FFF7EEFC2046FFF7AC
:1040E00059F900F093F90028A2D1C8F80070BFF385
:1040F0004F8FBFF36F8F9BE72046FFF74BF900F020
:1041000085F995E704ED00E02DE9F0410C46050046
:1041100011D0C4B1FFF7C8FB174B5A696E6820680D
:10412000911B471C17D02F689B6A9F4219D096425B
:1041300017D8012410E0502080F31188BFF34F8F6F
:10414000BFF36F8FFEE7502080F31188BFF34F8FCE
:10415000BFF36F8FFEE70024FFF7C6FB2046BDE8E4
:10416000F081884205D9401A20602846FFF796FC66
:10417000F1E700202060DCE7540000202DE9FF5F1C
:104180008346DDE90E87994616468A469000FFF77A
:1041900037F905001CD05C20FFF732F9040014D079
:1041A0000020256384F85900CDE90240CDE900875D
:1041B0004B46324651465846FEF70DFF2046FEF765
:1041C000ABFD012004B0BDE8F09F2846FFF7A0FB3F
:1041D0004FF0FF30F6E7F0B585B0DDE90B640A9DDE
:1041E000A6B1DCB15C2700972663022684F85960EB
:1041F000002604AFCDE90246CDE90057FEF7EBFEFD
:104200002046FEF789FD049805B0F0BD502080F3EC
:104210001188BFF34F8FBFF36F8FFEE7502080F3FD
:104220001188BFF34F8FBFF36F8FFEE70548C16959
:1042300019B1806B18B1002070470120704702202F
:10424000704700005400002001484069704700009A
:10425000540000202DE9F0412E4C0027A06B40B106
:10426000206A401C2062606A00B101273846BDE820
:10427000F0816669761C666113D16068006838B1A8
:10428000502080F31188BFF34F8FBFF36F8FFEE78D
:104290006068A1686160A060A06A401CA062FEF72F
:1042A000F9FF206BDFF87080864209D360680068F0
:1042B00080B16068C068C568686886420DD22063B6
:1042C0002068C06A00EB800158F821000128CAD993
:1042D0000127C8E74FF0FF30F1E7281DFFF788FA04
:1042E000A86A18B105F11800FFF782FAE86AA16917
:1042F000884200D9A06100EB800108EB8100291DF4
:10430000FFF7C6FAE86A2168C96A8842CED3012756
:10431000CCE7000054000020B801002070B5040074
:104320004FF0000133D01B4D2868844207D0502045
:1043300080F31188BFF34F8FBFF36F8FFEE7206DBF
:1043400038B1401E2065E36CE26A9A421FD040B14A
:104350001DE0502080F31188BFF34F8FBFF36F8FA4
:10436000FEE7201DFFF744FAE06CE062C0F1380080
:10437000A061E06AA969884200D9A861064900EBFA
:10438000800001EB8000211DFFF782FA0121084621
:1043900070BD000054000020B801002070B5C06856
:1043A000C46854B104F118000646FFF721FA144D11
:1043B000A86B50B13146134815E0502080F31188A6
:1043C000BFF34F8FBFF36F8FFEE7201DFFF710FA8B
:1043D000E06AA969884200D9A8610B4900EB800016
:1043E00001EB8000211DFFF753FAE06A2968C96AD2
:1043F000884202D90120686270BD002070BD0000B3
:104400005400002040060020B80100202DE9F047AC
:104410002C4D00242746A86B38B1FFF745FAA86B4E
:10442000401EA863A86B40B146E0502080F311887D
:10443000BFF34F8FBFF36F8FFEE72969224E012034
:10444000D1B3A6F5916980463068E0B1F068C468E0
:1044500004F11800FFF7CCF9201DFFF7C9F9E06A55
:10446000A969884200D9A86100EB800109EB8100AD
:10447000211DFFF70DFAE06A2968C96A8842E3D373
:10448000C5F82480E0E70CB1FEF704FF2C6A4CB1BC
:104490004FEA0806FFF7DEFE00B16E62641EF9D136
:1044A00000202862686A38B1084901273807086087
:1044B000BFF34F8FBFF36F8FFFF716FA3846BDE893
:1044C000F0870000540000204006002004ED00E0CA
:1044D00010B586B0FEF788FC114CA068B8B100207A
:1044E0000390049005AA04A903A8FFF79FF9DDE94A
:1044F000032102208DE8070000230AA10B48059A3A
:10450000FFF769FEE06010B106B0012010BD502039
:1045100080F31188BFF34F8FBFF36F8FFEE700006A
:1045200090000020546D72205376630071330008B0
:104530002DE9FF411E46134602000A9D4FF0000080
:1045400016D0144CA768002F0FD0CDE900130292AB
:10455000062917DAFFF76AFE02284FF000030FD092
:1045600000226946A068FFF725FC04B0BDE8F08191
:10457000502080F31188BFF34F8FBFF36F8FFEE79A
:104580002A46EEE70023324669463846FFF7C2FC6A
:10459000EBE700009000002010B500290AD0087851
:1045A000002807D005487844FCF77CFB002801D0A0
:1045B000002010BD0248784410BD000056110000D4
:1045C0004E11000021F00042A2F16052B2F5801FAE
:1045D00001F0004328BFD2F17F6C0BD95FEA001CC9
:1045E00043EAC20242EB507018BF704728BF20F068
:1045F00001007047B2F5801FBCBF184670474FEAF4
:10460000410C1CF5001F02D2084600F0F1BE70B547
:1046100000F0C8FA00000089FFF7F6BF4FF0004035
:10462000A0F580007047000010B591EA030F48BF65
:1046300083F0004300F1F883841A71EB030C05D278
:10464000121943EB0C03001B61EB0C01DFF824E1B2
:104650004FEA1154A4EB135C1EEA430F18BF9EEA05
:10466000445F73D023EA0E03DCF1200E21EA0451EB
:1046700043F4801332D322FA0CFE10EB0E0023FA1F
:104680000CFE41EB0E01CCF1200E03FA0EFE10EBF6
:104690000E0051F10001B1F5801FCCF1200E32D295
:1046A00001EB045112FA0EF2BDE8104058BF7047FA
:1046B000401C38BF5FEA420218BF7047002814BF91
:1046C00020F0010041F100014FEA410313F5001F02
:1046D00038BF7047A1F1C04100F0B2BA012A43EBE4
:1046E0000302ACF1200CDCF11F0E32BF4FF0000EC4
:1046F00023FA0CF310EB030041EB0451B4EB115F10
:10470000D0D0A1EB045101F5801149085FEA3000D7
:1047100001EB04510ED350F1000038BF12FA0EFE27
:1047200008D1BDE81040C9E7401C38BF5FEA42022B
:10473000CAD1C3E7BDE810404FEA410313F5001F9B
:1047400038BF7047A1F1C04100F07ABA9EEA445FD9
:1047500008D011EA5E0FBDE8104004BF01F000412F
:1047600000207047BDE8104070B500F01BFA00BF94
:1047700064FBBE3E0000E0FF2DE9C04130B4DFF82D
:10478000A0C23CEA111418BF3CEA131400F0EC80FC
:1047900081EA03051CEA111444EAD57418BF1CEA27
:1047A000131500F0C780A4EB05044FF0004545EA5F
:1047B000C12145EAC32341EA505143EA525304F16F
:1047C0007F74994204F500344FEAC0204FEAC222B8
:1047D00008BF904200F09C804FEA13650FF240162C
:1047E000765D4FEA134506FB05F7C7F1807706FBB8
:1047F00007F74FEAD737A7FB03687642C8F580383A
:10480000A7FB06CE38BFA8F1010807FB08E64FF06A
:10481000000EA6FB028CE6FB03CEDCF1000CCEF111
:10482000004E38BFAEF1010EA6FB0C584FF000074A
:104830004FF00005E6FB0E87A1FB08C6A0FB07CEE4
:1048400016EB0E0645F10005E1FB076515F1E04E9C
:104850007EBFA4F580345FEA46066D4116F18007FD
:1048600045F100054FEA17274FEA066647EA056754
:10487000A6F1DE46B6F1805F4FEA15251FD938460E
:1048800024F0010C05EBC471BCF1FE6F01EB0C11BF
:1048900002D8F0BCBDE8008124425CBF01F5801E57
:1048A0009EEAC47F02D4F0BCBDE80081244238D423
:1048B000F0BCA1F1C041BDE8004100F0C1B94FEA30
:1048C000D22242EA43524FEAD323A7FB02864FEAA1
:1048D000D02040EA415007FB03661EEA0E0F4FEA64
:1048E000D12105FB026658BFA6EB0056B6EB005679
:1048F0004FEA520E4EEAC37E18EB0E0E56EB530EE5
:10490000BDD518EB02085E417F1C55F10005B6E7E6
:104910004FF480154FF000074FF000064FF00008ED
:10492000ADE7F0BC4FF0000001F1C04101F00041E3
:10493000BDE8008111EA0C1F0CEA131500D00CE051
:1049400013EA0C1F00F025804FF00000F0BC81EA54
:10495000030101F00041BDE80081F0BCBDE8004169
:1049600081EA030100F06CB9F0BCBDE8004170B50C
:1049700000F018F9097EFC3E00F007B881EA030157
:104980004FF0000001F00041704781EA030100F0A0
:1049900057B9F0BCBDE800414FF000002149704715
:1049A000FFFDFBF9F7F5F4F2F0EEEDEBE9E8E6E4F4
:1049B000E3E1E0DEDDDBDAD8D7D5D4D3D1D0CFCD7B
:1049C000CCCBCAC8C7C6C5C4C2C1C0BFBEBDBCBBB4
:1049D000BAB9B8B7B6B5B4B3B2B1B0AFAEADACABAF
:1049E000AAA9A8A8A7A6A5A4A3A3A2A1A09F9F9E89
:1049F0009D9C9C9B9A99999897979695959493933B
:104A0000929191908F8F8E8E8D8C8C8B8B8A8989D1
:104A10008888878786858584848383828281818054
:104A20000000FF070000F87FB0FA80F310FA03F1EE
:104A30000AD0C3F11D0303F580634FEA41504FEAEA
:104A4000035202EBD12170474FF000007047000085
:104A5000DFF848C170B51CEA111E1EBF1CEA131511
:104A60009EEA0C0F95EA0C0F00F06F8081EA0304B8
:104A700023EA4C134EEAD47E21EA4C1141F4801112
:104A800043F48013AE44A1FB024CA0FB0365AEF1DE
:104A90007F7E361955EB0C05A1FB034C4CF100034E
:104AA000A0FB021C16EB0C06654153F10003094202
:104AB00018BF46F0010613F4007F0BD14FEA033113
:104AC0004FEA0530340341EA155140EA16506FF0C1
:104AD00003020AE04FEAC3214FEAC520F40241EA8B
:104AE000555140EA56506FF0020202EB2E4201EBA4
:104AF000025585EACE710AD05FEA440C18BF24F053
:104B0000004450F1000041F1000120EAD47040F26D
:104B1000FE7C624500D270BDA84214BF4FF08044B5
:104B20004FF04044002E08BF0024BEF1806FA8BFA4
:104B3000A1F1C041BDE8704080F282804FF00000DA
:104B400001F1C04101F0004170479EEA0C0F0CEAF0
:104B5000131518BF95EA0C0F06D04FF0000081EA3C
:104B6000030E0EF0004170BD00F01CF88900013EFC
:104B700000F007B800F009B84FEA430C5FEA5C5C4C
:104B800008D081EA030100F05BB84FEA410C5FEA0C
:104B90005C5CF6D14FF00000014970470000FF0750
:104BA0000000F87F0EF1020E2EF0030E5EF8046B8B
:104BB000364205D4012A43EB030515F5001F12D830
:104BC000012841EB010C1CF5001F0CD80ED14FEA57
:104BD000D17C15F5001F0CEB4C0C0CF1020C08BF3E
:104BE0004CEBD37C04E04FF0080C01E04FEAD37C9F
:104BF0000CEB4C0526FA05F606F00706B6F1040C98
:104C000006D20EEB860CBDE870404CF0010C6047FC
:104C1000DFE80CF0090B02024FF000414FF00000FA
:104C2000A1F5002170BD19461046012851EB010481
:104C300018BFD4F5001484BF002001F0004170BDFE
:104C40000808A0F500114FEA310170472DE9F04145
:104C500001F5801CBCF5001FC0F2C3804FEA115C57
:104C600021EA0C510CF1FD0C41F480115FEA5C0C5F
:104C70000CF5C07C01D3400049413DA4890241EAC2
:104C8000905187028E0E0A0CA45D04FB04F602FB11
:104C900006F6C6F14046A4FB0662F60D46EA422639
:104CA00006FB06F4A4FB01235242C3F1404338BF84
:104CB0005B1EA6FB02420024E6FB0324D20B42EA61
:104CC0004446A6FB0623A1FB02E2A3FB07E4A418CB
:104CD0004FF0000252F10002E3FB01426442C2F1D4
:104CE000404E38BFAEF1010EA6FB04234FF0000288
:104CF000E6FB0E32A2FB03464FF00004B61954F156
:104D00000004E2FB0264A1FB06E6A4FB07E816EB45
:104D100008064FF0000858F10008E4FB01687642ED
:104D2000C8F1405838BFA8F10108A2FB06E4A3FB74
:104D300008E52D194FF0000454F10004E2FB08547B
:104D4000A1FB05E6A7FB04E818EB06084FF00006F8
:104D500056F10006E1FB048618F1200556F1000625
:104D6000A809A8F11B08B10908F03F08B8F10A0F1B
:104D700040EA86601CD901EB0C51BDE8F08100BF10
:104D8000FCF5EEE8E2DDD8D3CFCBC7C3C0BDB9B6E2
:104D9000B4B1AEACA9A7A5A3A19F9D9B9A989695E7
:104DA0009392908F8D8C8B8988878685848382816E
:104DB000A0FB006800FB01F208EB4208B8EB872873
:104DC00007D5341858EB0104D5D5401C51F100012A
:104DD000D1E7341A78EB0104CDD4401E71F1000103
:104DE000C9E75FEA4C0C5FEA9C5C0DD105D34FF03C
:104DF000000001F00041BDE8F081BDE8F04170B570
:104E0000FFF7D0FE6DDBFFBEBDE8F0414FF00000C4
:104E1000004970470000F87F10B591EA030F48BFC2
:104E200083F000433FF508AC841A71EB030C07D202
:104E300012198CF0004C43EB0C03001B61EB0C01CE
:104E4000DFF8A4E14FEA1154A4EB135C1EEA430F10
:104E500018BF9EEA445F00F0B08023EA6E0352421E
:104E600021EA0451C3EB6E0338BF5B1EDCF1200E58
:104E700025D322FA0CFE10EB0E0043FA0CFE41EB98
:104E80000E01CCF1200E03FA0EFE10EB0E0051F1D4
:104E90000001CCF1200E29D412FA0EF201EB0451DC
:104EA000BDE8104058BF7047401C1CBFB2F1004F16
:104EB000704700280CBF491C20F00100704712EB1E
:104EC000020E43EB030218BF4FF0010E4EEA4202FE
:104ED000ACF1200CDCF11E0E54D943FA0CFE10EBA1
:104EE0000E0051F1FF31CCF11E0ED5D50EF1010EA1
:104EF00012FA0EFE404141EB010101EB445C5FEA16
:104F00005C5C10D910EBDE7001EB045138BFBEF1D0
:104F1000004FBDE8104018BF704700280CBF491C67
:104F200020F00100704730D24FEAD42C11F5001167
:104F300024F400641BD0B1FA81F20B3AA41AA41E27
:104F4000D2F12003914030FA03F31943904001EB72
:104F5000CC71002C01EB0451BDE81040A8BF704794
:104F600001F1C0414FF0000001F000417047B0FA7C
:104F700080F310FA03F100D110BDE41A173C480584
:104F8000C90AE4E701EB045110BD491001EB0451DB
:104F9000BDE810404FEA300002E04FF000017047DA
:104FA0004A0008BF0042F8D0B2F5001F28BF704782
:104FB00001F000414FF0000070479EEA445F07D0C7
:104FC00011EA5E0FBDE8104004BF002100207047C9
:104FD000BDE8104070B5FFF7E5FD00BF40DFF63ECD
:104FE00083F00041104670470000E0FF43004FEAA5
:104FF000D30C4FEA3C0C43401FBF40070CF16051FB
:1050000013F0FE4F70471CF0006F03D100200CF02E
:10501000004170470CF0004343EA507010B540EA7D
:10502000CC0000F09FF900BF000000924FEA0001A1
:10503000FFF706BE4FF000414FF00000A1F5002140
:105040007047000090EA010F48BF81F0004100F175
:105050000C82421A3CBF801A89184FEAD0524FF096
:105060007F4C1CEA410FA2EBD15318BF9CEA026FA0
:1050700000F03B804FF0004C4CEA00204CEA01214C
:1050800021FA03FC10EB0C0C1ED202F1FF325FEA96
:105090001C2040EBC25038BF70471CF07F0F4FEA16
:1050A000400C18BFBCF17F4F38BF7047C3F12003DD
:1050B000994008BF20F00100BCF17F4F38BF704716
:1050C000A0F1C04000F094B94FEA3C00000A40EB68
:1050D000C25028BF1CF0FF0F4FEA400CE6D018BFAB
:1050E000BCF17F4F38BF7047EAE79CEA026F05D0FA
:1050F00010EA5C0F08BF00F00040704710B500F0E8
:1051000031F900BF64FBBE3E401058BFC0F14040C3
:10511000491058BFC1F140418142EFF30080704710
:105120004FF47F0C1CEAD0121EBF1CEAD11392EA86
:105130000C0F93EA0C0F00F0858090EA010F48BF36
:1051400042F4807240F4000C41F400002CF07F41E6
:1051500020F07F4000B58142A2EB03020FF2081C51
:10516000ACEB504EC0F100009EF800E04FEA4E0E4E
:1051700000FB0EFC38BF49004FEA2C1C02F5FA0276
:105180000CFB0EF34FEACE1E4FEA112C4FEAC12161
:105190000EEB635E42EB22420EFB0CFC4FEA1C530B
:1051A00000FB03114FEA112C4FEA01310EFB0CFCFE
:1051B0004FEADC4C00FB0C11C14228BF09184CEB34
:1051C00003335DF804EB10EB410143EBC250B2F541
:1051D0007C0F38BF704729D512F0F00F1CBF00F1CB
:1051E000C04000F00040704700818283848586873C
:1051F00088898B8C8D8E8F919293959697999A9C96
:105200009D9FA0A2A3A5A7A8AAACAEB0B2B3B5B704
:10521000B9BCBEC0C2C5C7C9CCCED1D4D7D9DCDFDA
:10522000E2E6E9ECF0F3F7FAFE0000004FEA400C8A
:105230000CF1807CBCF17E4F28BF7047B0F1C040BC
:1052400000F0D6B890EA010F0CEAD11348BF42F43F
:105250008072624538BF634507D213F47F0F16D0C2
:1052600080EA010000F00040704710B500F07AF8C5
:10527000097EFC3E00F005B880EA010000F0004025
:10528000704780EA010000F0004000F0B1B812F46D
:105290007F0F04BF0248704780EA010000F0A8B801
:1052A0000000C07F10F0004148BF4042B0FA80F3D8
:1052B00010FA03F2C3F19D030BD051EAC35101EB85
:1052C0001220530638BF704700F1010008BF20F0DC
:1052D00001007047B0FA80F310FA03F2C3F19D03A6
:1052E0000AD0D90501EB1220530638BF704700F1F0
:1052F000010008BF20F001007047000050EA010CD7
:1053000000F113801CF5000F58BFBCF5000F01D44D
:105310008842704707D710F5000F58BF11F5000FEE
:1053200015D488427047894270471CF5000F04D598
:10533000BCF5000FF7D5814270474FF0807C1CEB25
:10534000400F38BF1CEB410F01D28142704710B5AE
:1053500000F008F8922449004FF000504FF08051BF
:10536000FFF7D2BE0EF1020E2EF0030E5EF8044BD4
:10537000244204D44FEA4102B2F17F4F11D84FEAE0
:105380004003B3F17F4F0CD80ED14FEAD07CB2F17D
:105390007F4F0CEB4C0C0CF1020C08BF4CEBD17C9A
:1053A00004E04FF0080C01E04FEAD17C0CEB4C0319
:1053B00024FA03F404F00704B4F1040C06D20EEB53
:1053C000840CBDE810404CF0010C6047DFE80CF0A5
:1053D000070802024FF00040A0F5800010BD08460B
:1053E000420018BFD2F1807288BF00F0004010BDAB
:1053F000FF2141EAD050C005704751EA000C00F18E
:1054000013801CF5000F58BFBCF5000F01D481427A
:10541000704707D711F5000F58BF10F5000F15D4CE
:1054200081427047894270471CF5000F04D5BCF5D6
:10543000000FF7D5884270474FF0807C1CEB410F7E
:1054400038BF1CEB400F01D28842704780EA010050
:1054500081EA000180EA0100FFF779BF90EA010FBD
:1054600048BF81F000413FF5F4AD421A04D882F004
:105470000042A0EB020011444FEAD0524FF07F4CA3
:105480001CEA410FA2EBD15318BF9CEA026F4AD02D
:105490004FF0004C4CEA00204CEA012121FA03FCB9
:1054A000B0EB0C0C0FD412F0FE0F36D05FEA4C00BC
:1054B0001DD5001240EBC25038BF70471CF03F0FA3
:1054C00018BF70470BE0A2F101025FEA1C2040EB1D
:1054D000C25038BF70471CF07F0F18BF7047C3F130
:1054E0002003994014BF401E20F00100704780083F
:1054F0004FEA122308BF7047B0FA80FCA2EB0C02FF
:10550000CCF1280C60FA0CF093EA122F04BF00EBE8
:10551000C25070474FEAC3707047130A5FEADC104D
:1055200008BF7047F6E79CEA026F04D010EA5C0FF0
:1055300008BF0020704710B5FFF714FF40DFF63EAC
:1055400081F000407047FBF7D3B80000C456000854
:10555000000000000000000000000000000000004B
:105560000002000020000000000000000000000019
:10557000D0560008000000000000000000000000FD
:105580000000000000020000180000000000000001
:1055900000000000010202030405060708090A0BC7
:1055A0000C0D0E0F101000000000000000000102A2
:1055B00003040607080900000000010203040000BC
:1055C00002400000000000A00000000005400000B4
:1055D000000000C8000000000C4000000000409CDB
:1055E00000000000194000000020BCBE00000000C8
:1055F00034400000BFC91B8E00000004B54000000D
:10560000504BCFD06607E2CF010000006C41000094
:105610003E8251AADFEEA73401000000D94200000B
:10562000DCB5A0E23A301F97FFFFFFFFB445000052
:10563000FD25A0C8E9A3C14FFFFFFFFFFF3F00000A
:105640000000008000000000FF3F0000000000801C
:1056500000000000474554202F7570646174653F59
:105660006170695F6B65793D5A364F5654545439B1
:10567000583747434B47564D266669656C64313D44
:105680002566266669656C64323D25662666696511
:105690006C64333D2566266669656C64343D256619
:1056A000266669656C64353D2566266669656C64A9
:1056B000363D2566266669656C64373D25660D0AAC
:1056C000000000007461736B576966690000000098
:1056D0007461736B53656E736F72730018570008B3
:1056E00000000020CC00000028010008E45700085A
:1056F000CC000020E41F0000440100081C00000052
:1057000043000000F8FFFFFF0C0000000E00000047
:105710000F0000002E00000000000000000000004C
:105720000000000000000000000000000000000079
:105730000000000000000000000000000000000069
:105740000000000000000000000000000000000059
:105750000000000000000000000000000100000048
:1057600010000000000000000024F4000000000011
:105770000000000000000000000000000000000029
:105780000000000000000000000000000000000019
:105790000000000000000000000000000000000009
:1057A00000000000000000000000000000000000F9
:1057B00000000000000000000000000000000000E9
:1057C00000000000000000000000000000000000D9
:1057D000000000000000000000000000AAAAAAAA21
:0457E00000000000C5
:04000005080000ED02
:00000001FF
